{
	"contracts/Hasher.sol": {
		"Hasher": {
			"abi": [
				{
					"inputs": [
						{
							"internalType": "uint256",
							"name": "x",
							"type": "uint256"
						},
						{
							"internalType": "uint256",
							"name": "k",
							"type": "uint256"
						}
					],
					"name": "MiMC5",
					"outputs": [
						{
							"internalType": "uint256",
							"name": "h",
							"type": "uint256"
						}
					],
					"stateMutability": "view",
					"type": "function"
				}
			],
			"devdoc": {
				"kind": "dev",
				"methods": {},
				"version": 1
			},
			"evm": {
				"assembly": "    /* \"contracts/Hasher.sol\":57:1522  contract Hasher {... */\n  mstore(0x40, 0x80)\n    /* \"contracts/Hasher.sol\":92:169  21888242871839275222246405745257275088548364400416034343698204186575808495617 */\n  0x30644e72e131a029b85045b68181585d2833e84879b9709143e1f593f0000001\n    /* \"contracts/Hasher.sol\":80:169  uint256 p = 21888242871839275222246405745257275088548364400416034343698204186575808495617 */\n  0x00\n  sstore\n    /* \"contracts/Hasher.sol\":191:193  10 */\n  0x0a\n    /* \"contracts/Hasher.sol\":175:193  uint8 nRounds = 10 */\n  0x01\n  exp(0x0100, 0x00)\n  dup2\n  sload\n  dup2\n  0xff\n  mul\n  not\n  and\n  swap1\n  dup4\n  0xff\n  and\n  mul\n  or\n  swap1\n  sstore\n  pop\n    /* \"contracts/Hasher.sol\":199:1017  uint256[10] c = [... */\n  mload(0x40)\n  dup1\n  0x0140\n  add\n  0x40\n  mstore\n  dup1\n    /* \"contracts/Hasher.sol\":225:226  0 */\n  0x00\n    /* \"contracts/Hasher.sol\":199:1017  uint256[10] c = [... */\n  dup2\n  mstore\n  0x20\n  add\n    /* \"contracts/Hasher.sol\":236:313  81267508508943089542119141718816171702175751362421721808008409724587372567402 */\n  0xb3abc7a01fc7add5efed260f253d5043801ad7b8baa07f52477a986bc335db6a\n    /* \"contracts/Hasher.sol\":199:1017  uint256[10] c = [... */\n  dup2\n  mstore\n  0x20\n  add\n    /* \"contracts/Hasher.sol\":323:400  82549416809288341021702880577288618629374489033499052253782142246114419665341 */\n  0xb681506da58f64bd3544241debba7ee34494926451c4f5512a7aab95e441e9bd\n    /* \"contracts/Hasher.sol\":199:1017  uint256[10] c = [... */\n  dup2\n  mstore\n  0x20\n  add\n    /* \"contracts/Hasher.sol\":410:488  109206284254671900743241533452377855708054610592542125593627602217146010682341 */\n  0xf170910482f04c4cd8411f679e8e534aff8ab944d8f78ee9806a128c3129c3e5\n    /* \"contracts/Hasher.sol\":199:1017  uint256[10] c = [... */\n  dup2\n  mstore\n  0x20\n  add\n    /* \"contracts/Hasher.sol\":498:575  97047473353828477906743361674888655662363010779317563554348250689346499297972 */\n  0xd68eec62ba18e322076790419fa8b3774ac5ae276c6bde31d1a9a1f65440c2b4\n    /* \"contracts/Hasher.sol\":199:1017  uint256[10] c = [... */\n  dup2\n  mstore\n  0x20\n  add\n    /* \"contracts/Hasher.sol\":585:662  20722874102262470813003450073921050537631911991474070577892306508679922985455 */\n  0x2dd0bb28cce272bb3feb7c8a1f5b863ffcceab14e77f9b20d350500e987229ef\n    /* \"contracts/Hasher.sol\":199:1017  uint256[10] c = [... */\n  dup2\n  mstore\n  0x20\n  add\n    /* \"contracts/Hasher.sol\":672:749  15868405948871687681468472844859228477017686626681393981606220840125262862832 */\n  0x2315331178ba99f44d1e6d20286333a1b99131b1c12f6ad1b5271c6ead4a19f0\n    /* \"contracts/Hasher.sol\":199:1017  uint256[10] c = [... */\n  dup2\n  mstore\n  0x20\n  add\n    /* \"contracts/Hasher.sol\":759:837  113852166332449360953358404408849594476139010360220012333816529059971948242799 */\n  0xfbb60ae44b492c4abb590c1d7bb6e54a1a88cacc52b9609064eccb3eddba676f\n    /* \"contracts/Hasher.sol\":199:1017  uint256[10] c = [... */\n  dup2\n  mstore\n  0x20\n  add\n    /* \"contracts/Hasher.sol\":847:923  3313407124743833025119320838366173902545221821190252740799359315412938037078 */\n  0x0753526cde49cb11c8ea8713e8754fcd26f0a3faee5ddce1efded135c21a9756\n    /* \"contracts/Hasher.sol\":199:1017  uint256[10] c = [... */\n  dup2\n  mstore\n  0x20\n  add\n    /* \"contracts/Hasher.sol\":933:1011  103045447348244353507405560235128465894423923102745658092443851834739387598373 */\n  0xe3d1a8070b60f05847daf3516cae407160c1ff5bfa92ffa3f68cee07ce150625\n    /* \"contracts/Hasher.sol\":199:1017  uint256[10] c = [... */\n  dup2\n  mstore\n  pop\n  0x02\n  swap1\n  0x0a\n  tag_1\n  swap3\n  swap2\n  swap1\n  tag_2\n  jump\t// in\ntag_1:\n  pop\n    /* \"contracts/Hasher.sol\":57:1522  contract Hasher {... */\n  callvalue\n  dup1\n  iszero\n  tag_3\n  jumpi\n  0x00\n  dup1\n  revert\ntag_3:\n  pop\n  jump(tag_4)\ntag_2:\n  dup3\n  0x0a\n  dup2\n  add\n  swap3\n  dup3\n  iszero\n  tag_5\n  jumpi\n  swap2\n  0x20\n  mul\n  dup3\n  add\ntag_6:\n  dup3\n  dup2\n  gt\n  iszero\n  tag_7\n  jumpi\n  dup3\n  mload\n  dup3\n  sstore\n  swap2\n  0x20\n  add\n  swap2\n  swap1\n  0x01\n  add\n  swap1\n  jump(tag_6)\ntag_7:\ntag_5:\n  pop\n  swap1\n  pop\n  tag_8\n  swap2\n  swap1\n  tag_9\n  jump\t// in\ntag_8:\n  pop\n  swap1\n  jump\t// out\ntag_9:\ntag_10:\n  dup1\n  dup3\n  gt\n  iszero\n  tag_11\n  jumpi\n  0x00\n  dup2\n  0x00\n  swap1\n  sstore\n  pop\n  0x01\n  add\n  jump(tag_10)\ntag_11:\n  pop\n  swap1\n  jump\t// out\ntag_4:\n  dataSize(sub_0)\n  dup1\n  dataOffset(sub_0)\n  0x00\n  codecopy\n  0x00\n  return\nstop\n\nsub_0: assembly {\n        /* \"contracts/Hasher.sol\":57:1522  contract Hasher {... */\n      mstore(0x40, 0x80)\n      callvalue\n      dup1\n      iszero\n      tag_1\n      jumpi\n      0x00\n      dup1\n      revert\n    tag_1:\n      pop\n      jumpi(tag_2, lt(calldatasize, 0x04))\n      shr(0xe0, calldataload(0x00))\n      dup1\n      0x324723a3\n      eq\n      tag_3\n      jumpi\n    tag_2:\n      0x00\n      dup1\n      revert\n        /* \"contracts/Hasher.sol\":1024:1520  function MiMC5(uint256 x, uint256 k) public view returns(uint256 h) {... */\n    tag_3:\n      tag_4\n      0x04\n      dup1\n      calldatasize\n      sub\n      dup2\n      add\n      swap1\n      tag_5\n      swap2\n      swap1\n      tag_6\n      jump\t// in\n    tag_5:\n      tag_7\n      jump\t// in\n    tag_4:\n      mload(0x40)\n      tag_8\n      swap2\n      swap1\n      tag_9\n      jump\t// in\n    tag_8:\n      mload(0x40)\n      dup1\n      swap2\n      sub\n      swap1\n      return\n    tag_7:\n        /* \"contracts/Hasher.sol\":1081:1090  uint256 h */\n      0x00\n        /* \"contracts/Hasher.sol\":1102:1120  uint256 lastOutput */\n      dup1\n        /* \"contracts/Hasher.sol\":1123:1124  x */\n      dup4\n        /* \"contracts/Hasher.sol\":1102:1124  uint256 lastOutput = x */\n      swap1\n      pop\n        /* \"contracts/Hasher.sol\":1134:1146  uint256 base */\n      0x00\n        /* \"contracts/Hasher.sol\":1156:1169  uint256 base2 */\n      dup1\n        /* \"contracts/Hasher.sol\":1179:1192  uint256 base4 */\n      0x00\n        /* \"contracts/Hasher.sol\":1208:1215  uint8 i */\n      dup1\n        /* \"contracts/Hasher.sol\":1218:1219  0 */\n      0x00\n        /* \"contracts/Hasher.sol\":1208:1219  uint8 i = 0 */\n      swap1\n      pop\n        /* \"contracts/Hasher.sol\":1203:1476  for (uint8 i = 0; i < nRounds; i++) {... */\n    tag_11:\n        /* \"contracts/Hasher.sol\":1225:1232  nRounds */\n      0x01\n      0x00\n      swap1\n      sload\n      swap1\n      0x0100\n      exp\n      swap1\n      div\n      0xff\n      and\n        /* \"contracts/Hasher.sol\":1221:1232  i < nRounds */\n      0xff\n      and\n        /* \"contracts/Hasher.sol\":1221:1222  i */\n      dup2\n        /* \"contracts/Hasher.sol\":1221:1232  i < nRounds */\n      0xff\n      and\n      lt\n        /* \"contracts/Hasher.sol\":1203:1476  for (uint8 i = 0; i < nRounds; i++) {... */\n      iszero\n      tag_12\n      jumpi\n        /* \"contracts/Hasher.sol\":1282:1283  p */\n      sload(0x00)\n        /* \"contracts/Hasher.sol\":1260:1284  addmod(lastOutput, k, p) */\n      dup1\n      tag_14\n      jumpi\n      tag_15\n      tag_16\n      jump\t// in\n    tag_15:\n    tag_14:\n        /* \"contracts/Hasher.sol\":1279:1280  k */\n      dup8\n        /* \"contracts/Hasher.sol\":1267:1277  lastOutput */\n      dup7\n        /* \"contracts/Hasher.sol\":1260:1284  addmod(lastOutput, k, p) */\n      addmod\n        /* \"contracts/Hasher.sol\":1253:1284  base = addmod(lastOutput, k, p) */\n      swap4\n      pop\n        /* \"contracts/Hasher.sol\":1324:1325  p */\n      sload(0x00)\n        /* \"contracts/Hasher.sol\":1305:1326  addmod(base, c[i], p) */\n      dup1\n      tag_17\n      jumpi\n      tag_18\n      tag_16\n      jump\t// in\n    tag_18:\n    tag_17:\n        /* \"contracts/Hasher.sol\":1318:1319  c */\n      0x02\n        /* \"contracts/Hasher.sol\":1320:1321  i */\n      dup3\n        /* \"contracts/Hasher.sol\":1318:1322  c[i] */\n      0xff\n      and\n      0x0a\n      dup2\n      lt\n      tag_19\n      jumpi\n      tag_20\n      tag_21\n      jump\t// in\n    tag_20:\n    tag_19:\n      add\n      sload\n        /* \"contracts/Hasher.sol\":1312:1316  base */\n      dup6\n        /* \"contracts/Hasher.sol\":1305:1326  addmod(base, c[i], p) */\n      addmod\n        /* \"contracts/Hasher.sol\":1298:1326  base = addmod(base, c[i], p) */\n      swap4\n      pop\n        /* \"contracts/Hasher.sol\":1368:1369  p */\n      sload(0x00)\n        /* \"contracts/Hasher.sol\":1349:1370  mulmod(base, base, p) */\n      dup1\n      tag_23\n      jumpi\n      tag_24\n      tag_16\n      jump\t// in\n    tag_24:\n    tag_23:\n        /* \"contracts/Hasher.sol\":1362:1366  base */\n      dup5\n        /* \"contracts/Hasher.sol\":1356:1360  base */\n      dup6\n        /* \"contracts/Hasher.sol\":1349:1370  mulmod(base, base, p) */\n      mulmod\n        /* \"contracts/Hasher.sol\":1341:1370  base2 = mulmod(base, base, p) */\n      swap3\n      pop\n        /* \"contracts/Hasher.sol\":1413:1414  p */\n      sload(0x00)\n        /* \"contracts/Hasher.sol\":1392:1415  mulmod(base2, base2, p) */\n      dup1\n      tag_25\n      jumpi\n      tag_26\n      tag_16\n      jump\t// in\n    tag_26:\n    tag_25:\n        /* \"contracts/Hasher.sol\":1406:1411  base2 */\n      dup4\n        /* \"contracts/Hasher.sol\":1399:1404  base2 */\n      dup5\n        /* \"contracts/Hasher.sol\":1392:1415  mulmod(base2, base2, p) */\n      mulmod\n        /* \"contracts/Hasher.sol\":1384:1415  base4 = mulmod(base2, base2, p) */\n      swap2\n      pop\n        /* \"contracts/Hasher.sol\":1463:1464  p */\n      sload(0x00)\n        /* \"contracts/Hasher.sol\":1443:1465  mulmod(base4, base, p) */\n      dup1\n      tag_27\n      jumpi\n      tag_28\n      tag_16\n      jump\t// in\n    tag_28:\n    tag_27:\n        /* \"contracts/Hasher.sol\":1457:1461  base */\n      dup5\n        /* \"contracts/Hasher.sol\":1450:1455  base4 */\n      dup4\n        /* \"contracts/Hasher.sol\":1443:1465  mulmod(base4, base, p) */\n      mulmod\n        /* \"contracts/Hasher.sol\":1430:1465  lastOutput = mulmod(base4, base, p) */\n      swap5\n      pop\n        /* \"contracts/Hasher.sol\":1234:1237  i++ */\n      dup1\n      dup1\n      tag_29\n      swap1\n      tag_30\n      jump\t// in\n    tag_29:\n      swap2\n      pop\n      pop\n        /* \"contracts/Hasher.sol\":1203:1476  for (uint8 i = 0; i < nRounds; i++) {... */\n      jump(tag_11)\n    tag_12:\n      pop\n        /* \"contracts/Hasher.sol\":1511:1512  p */\n      sload(0x00)\n        /* \"contracts/Hasher.sol\":1489:1513  addmod(lastOutput, k, p) */\n      dup1\n      tag_31\n      jumpi\n      tag_32\n      tag_16\n      jump\t// in\n    tag_32:\n    tag_31:\n        /* \"contracts/Hasher.sol\":1508:1509  k */\n      dup7\n        /* \"contracts/Hasher.sol\":1496:1506  lastOutput */\n      dup6\n        /* \"contracts/Hasher.sol\":1489:1513  addmod(lastOutput, k, p) */\n      addmod\n        /* \"contracts/Hasher.sol\":1485:1513  h = addmod(lastOutput, k, p) */\n      swap5\n      pop\n        /* \"contracts/Hasher.sol\":1092:1520  {... */\n      pop\n      pop\n      pop\n      pop\n        /* \"contracts/Hasher.sol\":1024:1520  function MiMC5(uint256 x, uint256 k) public view returns(uint256 h) {... */\n      swap3\n      swap2\n      pop\n      pop\n      jump\t// out\n        /* \"#utility.yul\":88:205   */\n    tag_34:\n        /* \"#utility.yul\":197:198   */\n      0x00\n        /* \"#utility.yul\":194:195   */\n      dup1\n        /* \"#utility.yul\":187:199   */\n      revert\n        /* \"#utility.yul\":334:411   */\n    tag_36:\n        /* \"#utility.yul\":371:378   */\n      0x00\n        /* \"#utility.yul\":400:405   */\n      dup2\n        /* \"#utility.yul\":389:405   */\n      swap1\n      pop\n        /* \"#utility.yul\":334:411   */\n      swap2\n      swap1\n      pop\n      jump\t// out\n        /* \"#utility.yul\":417:539   */\n    tag_37:\n        /* \"#utility.yul\":490:514   */\n      tag_48\n        /* \"#utility.yul\":508:513   */\n      dup2\n        /* \"#utility.yul\":490:514   */\n      tag_36\n      jump\t// in\n    tag_48:\n        /* \"#utility.yul\":483:488   */\n      dup2\n        /* \"#utility.yul\":480:515   */\n      eq\n        /* \"#utility.yul\":470:533   */\n      tag_49\n      jumpi\n        /* \"#utility.yul\":529:530   */\n      0x00\n        /* \"#utility.yul\":526:527   */\n      dup1\n        /* \"#utility.yul\":519:531   */\n      revert\n        /* \"#utility.yul\":470:533   */\n    tag_49:\n        /* \"#utility.yul\":417:539   */\n      pop\n      jump\t// out\n        /* \"#utility.yul\":545:684   */\n    tag_38:\n        /* \"#utility.yul\":591:596   */\n      0x00\n        /* \"#utility.yul\":629:635   */\n      dup2\n        /* \"#utility.yul\":616:636   */\n      calldataload\n        /* \"#utility.yul\":607:636   */\n      swap1\n      pop\n        /* \"#utility.yul\":645:678   */\n      tag_51\n        /* \"#utility.yul\":672:677   */\n      dup2\n        /* \"#utility.yul\":645:678   */\n      tag_37\n      jump\t// in\n    tag_51:\n        /* \"#utility.yul\":545:684   */\n      swap3\n      swap2\n      pop\n      pop\n      jump\t// out\n        /* \"#utility.yul\":690:1164   */\n    tag_6:\n        /* \"#utility.yul\":758:764   */\n      0x00\n        /* \"#utility.yul\":766:772   */\n      dup1\n        /* \"#utility.yul\":815:817   */\n      0x40\n        /* \"#utility.yul\":803:812   */\n      dup4\n        /* \"#utility.yul\":794:801   */\n      dup6\n        /* \"#utility.yul\":790:813   */\n      sub\n        /* \"#utility.yul\":786:818   */\n      slt\n        /* \"#utility.yul\":783:902   */\n      iszero\n      tag_53\n      jumpi\n        /* \"#utility.yul\":821:900   */\n      tag_54\n      tag_34\n      jump\t// in\n    tag_54:\n        /* \"#utility.yul\":783:902   */\n    tag_53:\n        /* \"#utility.yul\":941:942   */\n      0x00\n        /* \"#utility.yul\":966:1019   */\n      tag_55\n        /* \"#utility.yul\":1011:1018   */\n      dup6\n        /* \"#utility.yul\":1002:1008   */\n      dup3\n        /* \"#utility.yul\":991:1000   */\n      dup7\n        /* \"#utility.yul\":987:1009   */\n      add\n        /* \"#utility.yul\":966:1019   */\n      tag_38\n      jump\t// in\n    tag_55:\n        /* \"#utility.yul\":956:1019   */\n      swap3\n      pop\n        /* \"#utility.yul\":912:1029   */\n      pop\n        /* \"#utility.yul\":1068:1070   */\n      0x20\n        /* \"#utility.yul\":1094:1147   */\n      tag_56\n        /* \"#utility.yul\":1139:1146   */\n      dup6\n        /* \"#utility.yul\":1130:1136   */\n      dup3\n        /* \"#utility.yul\":1119:1128   */\n      dup7\n        /* \"#utility.yul\":1115:1137   */\n      add\n        /* \"#utility.yul\":1094:1147   */\n      tag_38\n      jump\t// in\n    tag_56:\n        /* \"#utility.yul\":1084:1147   */\n      swap2\n      pop\n        /* \"#utility.yul\":1039:1157   */\n      pop\n        /* \"#utility.yul\":690:1164   */\n      swap3\n      pop\n      swap3\n      swap1\n      pop\n      jump\t// out\n        /* \"#utility.yul\":1170:1288   */\n    tag_39:\n        /* \"#utility.yul\":1257:1281   */\n      tag_58\n        /* \"#utility.yul\":1275:1280   */\n      dup2\n        /* \"#utility.yul\":1257:1281   */\n      tag_36\n      jump\t// in\n    tag_58:\n        /* \"#utility.yul\":1252:1255   */\n      dup3\n        /* \"#utility.yul\":1245:1282   */\n      mstore\n        /* \"#utility.yul\":1170:1288   */\n      pop\n      pop\n      jump\t// out\n        /* \"#utility.yul\":1294:1516   */\n    tag_9:\n        /* \"#utility.yul\":1387:1391   */\n      0x00\n        /* \"#utility.yul\":1425:1427   */\n      0x20\n        /* \"#utility.yul\":1414:1423   */\n      dup3\n        /* \"#utility.yul\":1410:1428   */\n      add\n        /* \"#utility.yul\":1402:1428   */\n      swap1\n      pop\n        /* \"#utility.yul\":1438:1509   */\n      tag_60\n        /* \"#utility.yul\":1506:1507   */\n      0x00\n        /* \"#utility.yul\":1495:1504   */\n      dup4\n        /* \"#utility.yul\":1491:1508   */\n      add\n        /* \"#utility.yul\":1482:1488   */\n      dup5\n        /* \"#utility.yul\":1438:1509   */\n      tag_39\n      jump\t// in\n    tag_60:\n        /* \"#utility.yul\":1294:1516   */\n      swap3\n      swap2\n      pop\n      pop\n      jump\t// out\n        /* \"#utility.yul\":1522:1702   */\n    tag_16:\n        /* \"#utility.yul\":1570:1647   */\n      0x4e487b7100000000000000000000000000000000000000000000000000000000\n        /* \"#utility.yul\":1567:1568   */\n      0x00\n        /* \"#utility.yul\":1560:1648   */\n      mstore\n        /* \"#utility.yul\":1667:1671   */\n      0x12\n        /* \"#utility.yul\":1664:1665   */\n      0x04\n        /* \"#utility.yul\":1657:1672   */\n      mstore\n        /* \"#utility.yul\":1691:1695   */\n      0x24\n        /* \"#utility.yul\":1688:1689   */\n      0x00\n        /* \"#utility.yul\":1681:1696   */\n      revert\n        /* \"#utility.yul\":1708:1888   */\n    tag_21:\n        /* \"#utility.yul\":1756:1833   */\n      0x4e487b7100000000000000000000000000000000000000000000000000000000\n        /* \"#utility.yul\":1753:1754   */\n      0x00\n        /* \"#utility.yul\":1746:1834   */\n      mstore\n        /* \"#utility.yul\":1853:1857   */\n      0x32\n        /* \"#utility.yul\":1850:1851   */\n      0x04\n        /* \"#utility.yul\":1843:1858   */\n      mstore\n        /* \"#utility.yul\":1877:1881   */\n      0x24\n        /* \"#utility.yul\":1874:1875   */\n      0x00\n        /* \"#utility.yul\":1867:1882   */\n      revert\n        /* \"#utility.yul\":1894:2074   */\n    tag_40:\n        /* \"#utility.yul\":1942:2019   */\n      0x4e487b7100000000000000000000000000000000000000000000000000000000\n        /* \"#utility.yul\":1939:1940   */\n      0x00\n        /* \"#utility.yul\":1932:2020   */\n      mstore\n        /* \"#utility.yul\":2039:2043   */\n      0x11\n        /* \"#utility.yul\":2036:2037   */\n      0x04\n        /* \"#utility.yul\":2029:2044   */\n      mstore\n        /* \"#utility.yul\":2063:2067   */\n      0x24\n        /* \"#utility.yul\":2060:2061   */\n      0x00\n        /* \"#utility.yul\":2053:2068   */\n      revert\n        /* \"#utility.yul\":2080:2166   */\n    tag_41:\n        /* \"#utility.yul\":2115:2122   */\n      0x00\n        /* \"#utility.yul\":2155:2159   */\n      0xff\n        /* \"#utility.yul\":2148:2153   */\n      dup3\n        /* \"#utility.yul\":2144:2160   */\n      and\n        /* \"#utility.yul\":2133:2160   */\n      swap1\n      pop\n        /* \"#utility.yul\":2080:2166   */\n      swap2\n      swap1\n      pop\n      jump\t// out\n        /* \"#utility.yul\":2172:2339   */\n    tag_30:\n        /* \"#utility.yul\":2209:2212   */\n      0x00\n        /* \"#utility.yul\":2232:2254   */\n      tag_66\n        /* \"#utility.yul\":2248:2253   */\n      dup3\n        /* \"#utility.yul\":2232:2254   */\n      tag_41\n      jump\t// in\n    tag_66:\n        /* \"#utility.yul\":2223:2254   */\n      swap2\n      pop\n        /* \"#utility.yul\":2276:2280   */\n      0xff\n        /* \"#utility.yul\":2269:2274   */\n      dup3\n        /* \"#utility.yul\":2266:2281   */\n      sub\n        /* \"#utility.yul\":2263:2304   */\n      tag_67\n      jumpi\n        /* \"#utility.yul\":2284:2302   */\n      tag_68\n      tag_40\n      jump\t// in\n    tag_68:\n        /* \"#utility.yul\":2263:2304   */\n    tag_67:\n        /* \"#utility.yul\":2331:2332   */\n      0x01\n        /* \"#utility.yul\":2324:2329   */\n      dup3\n        /* \"#utility.yul\":2320:2333   */\n      add\n        /* \"#utility.yul\":2313:2333   */\n      swap1\n      pop\n        /* \"#utility.yul\":2172:2339   */\n      swap2\n      swap1\n      pop\n      jump\t// out\n\n    auxdata: 0xa264697066735822122037e22cff0279521718c87c080660c717592f25abb3c31767e4ac737e3bc1e61364736f6c63430008110033\n}\n",
				"bytecode": {
					"linkReferences": {},
					"object": "60806040527f30644e72e131a029b85045b68181585d2833e84879b9709143e1f593f0000001600055600a600160006101000a81548160ff021916908360ff160217905550604051806101400160405280600081526020017fb3abc7a01fc7add5efed260f253d5043801ad7b8baa07f52477a986bc335db6a81526020017fb681506da58f64bd3544241debba7ee34494926451c4f5512a7aab95e441e9bd81526020017ff170910482f04c4cd8411f679e8e534aff8ab944d8f78ee9806a128c3129c3e581526020017fd68eec62ba18e322076790419fa8b3774ac5ae276c6bde31d1a9a1f65440c2b481526020017f2dd0bb28cce272bb3feb7c8a1f5b863ffcceab14e77f9b20d350500e987229ef81526020017f2315331178ba99f44d1e6d20286333a1b99131b1c12f6ad1b5271c6ead4a19f081526020017ffbb60ae44b492c4abb590c1d7bb6e54a1a88cacc52b9609064eccb3eddba676f81526020017f0753526cde49cb11c8ea8713e8754fcd26f0a3faee5ddce1efded135c21a975681526020017fe3d1a8070b60f05847daf3516cae407160c1ff5bfa92ffa3f68cee07ce150625815250600290600a6101bb9291906101ce565b503480156101c857600080fd5b5061022b565b82600a81019282156101fd579160200282015b828111156101fc5782518255916020019190600101906101e1565b5b50905061020a919061020e565b5090565b5b8082111561022757600081600090555060010161020f565b5090565b6102e68061023a6000396000f3fe608060405234801561001057600080fd5b506004361061002b5760003560e01c8063324723a314610030575b600080fd5b61004a60048036038101906100459190610183565b610060565b60405161005791906101d2565b60405180910390f35b600080839050600080600080600090505b600160009054906101000a900460ff1660ff168160ff161015610127576000548061009f5761009e6101ed565b5b8786089350600054806100b5576100b46101ed565b5b60028260ff16600a81106100cc576100cb61021c565b5b015485089350600054806100e3576100e26101ed565b5b8485099250600054806100f9576100f86101ed565b5b83840991506000548061010f5761010e6101ed565b5b8483099450808061011f90610287565b915050610071565b5060005480610139576101386101ed565b5b86850894505050505092915050565b600080fd5b6000819050919050565b6101608161014d565b811461016b57600080fd5b50565b60008135905061017d81610157565b92915050565b6000806040838503121561019a57610199610148565b5b60006101a88582860161016e565b92505060206101b98582860161016e565b9150509250929050565b6101cc8161014d565b82525050565b60006020820190506101e760008301846101c3565b92915050565b7f4e487b7100000000000000000000000000000000000000000000000000000000600052601260045260246000fd5b7f4e487b7100000000000000000000000000000000000000000000000000000000600052603260045260246000fd5b7f4e487b7100000000000000000000000000000000000000000000000000000000600052601160045260246000fd5b600060ff82169050919050565b60006102928261027a565b915060ff82036102a5576102a461024b565b5b60018201905091905056fea264697066735822122037e22cff0279521718c87c080660c717592f25abb3c31767e4ac737e3bc1e61364736f6c63430008110033",
					"opcodes": "PUSH1 0x80 PUSH1 0x40 MSTORE PUSH32 0x30644E72E131A029B85045B68181585D2833E84879B9709143E1F593F0000001 PUSH1 0x0 SSTORE PUSH1 0xA PUSH1 0x1 PUSH1 0x0 PUSH2 0x100 EXP DUP2 SLOAD DUP2 PUSH1 0xFF MUL NOT AND SWAP1 DUP4 PUSH1 0xFF AND MUL OR SWAP1 SSTORE POP PUSH1 0x40 MLOAD DUP1 PUSH2 0x140 ADD PUSH1 0x40 MSTORE DUP1 PUSH1 0x0 DUP2 MSTORE PUSH1 0x20 ADD PUSH32 0xB3ABC7A01FC7ADD5EFED260F253D5043801AD7B8BAA07F52477A986BC335DB6A DUP2 MSTORE PUSH1 0x20 ADD PUSH32 0xB681506DA58F64BD3544241DEBBA7EE34494926451C4F5512A7AAB95E441E9BD DUP2 MSTORE PUSH1 0x20 ADD PUSH32 0xF170910482F04C4CD8411F679E8E534AFF8AB944D8F78EE9806A128C3129C3E5 DUP2 MSTORE PUSH1 0x20 ADD PUSH32 0xD68EEC62BA18E322076790419FA8B3774AC5AE276C6BDE31D1A9A1F65440C2B4 DUP2 MSTORE PUSH1 0x20 ADD PUSH32 0x2DD0BB28CCE272BB3FEB7C8A1F5B863FFCCEAB14E77F9B20D350500E987229EF DUP2 MSTORE PUSH1 0x20 ADD PUSH32 0x2315331178BA99F44D1E6D20286333A1B99131B1C12F6AD1B5271C6EAD4A19F0 DUP2 MSTORE PUSH1 0x20 ADD PUSH32 0xFBB60AE44B492C4ABB590C1D7BB6E54A1A88CACC52B9609064ECCB3EDDBA676F DUP2 MSTORE PUSH1 0x20 ADD PUSH32 0x753526CDE49CB11C8EA8713E8754FCD26F0A3FAEE5DDCE1EFDED135C21A9756 DUP2 MSTORE PUSH1 0x20 ADD PUSH32 0xE3D1A8070B60F05847DAF3516CAE407160C1FF5BFA92FFA3F68CEE07CE150625 DUP2 MSTORE POP PUSH1 0x2 SWAP1 PUSH1 0xA PUSH2 0x1BB SWAP3 SWAP2 SWAP1 PUSH2 0x1CE JUMP JUMPDEST POP CALLVALUE DUP1 ISZERO PUSH2 0x1C8 JUMPI PUSH1 0x0 DUP1 REVERT JUMPDEST POP PUSH2 0x22B JUMP JUMPDEST DUP3 PUSH1 0xA DUP2 ADD SWAP3 DUP3 ISZERO PUSH2 0x1FD JUMPI SWAP2 PUSH1 0x20 MUL DUP3 ADD JUMPDEST DUP3 DUP2 GT ISZERO PUSH2 0x1FC JUMPI DUP3 MLOAD DUP3 SSTORE SWAP2 PUSH1 0x20 ADD SWAP2 SWAP1 PUSH1 0x1 ADD SWAP1 PUSH2 0x1E1 JUMP JUMPDEST JUMPDEST POP SWAP1 POP PUSH2 0x20A SWAP2 SWAP1 PUSH2 0x20E JUMP JUMPDEST POP SWAP1 JUMP JUMPDEST JUMPDEST DUP1 DUP3 GT ISZERO PUSH2 0x227 JUMPI PUSH1 0x0 DUP2 PUSH1 0x0 SWAP1 SSTORE POP PUSH1 0x1 ADD PUSH2 0x20F JUMP JUMPDEST POP SWAP1 JUMP JUMPDEST PUSH2 0x2E6 DUP1 PUSH2 0x23A PUSH1 0x0 CODECOPY PUSH1 0x0 RETURN INVALID PUSH1 0x80 PUSH1 0x40 MSTORE CALLVALUE DUP1 ISZERO PUSH2 0x10 JUMPI PUSH1 0x0 DUP1 REVERT JUMPDEST POP PUSH1 0x4 CALLDATASIZE LT PUSH2 0x2B JUMPI PUSH1 0x0 CALLDATALOAD PUSH1 0xE0 SHR DUP1 PUSH4 0x324723A3 EQ PUSH2 0x30 JUMPI JUMPDEST PUSH1 0x0 DUP1 REVERT JUMPDEST PUSH2 0x4A PUSH1 0x4 DUP1 CALLDATASIZE SUB DUP2 ADD SWAP1 PUSH2 0x45 SWAP2 SWAP1 PUSH2 0x183 JUMP JUMPDEST PUSH2 0x60 JUMP JUMPDEST PUSH1 0x40 MLOAD PUSH2 0x57 SWAP2 SWAP1 PUSH2 0x1D2 JUMP JUMPDEST PUSH1 0x40 MLOAD DUP1 SWAP2 SUB SWAP1 RETURN JUMPDEST PUSH1 0x0 DUP1 DUP4 SWAP1 POP PUSH1 0x0 DUP1 PUSH1 0x0 DUP1 PUSH1 0x0 SWAP1 POP JUMPDEST PUSH1 0x1 PUSH1 0x0 SWAP1 SLOAD SWAP1 PUSH2 0x100 EXP SWAP1 DIV PUSH1 0xFF AND PUSH1 0xFF AND DUP2 PUSH1 0xFF AND LT ISZERO PUSH2 0x127 JUMPI PUSH1 0x0 SLOAD DUP1 PUSH2 0x9F JUMPI PUSH2 0x9E PUSH2 0x1ED JUMP JUMPDEST JUMPDEST DUP8 DUP7 ADDMOD SWAP4 POP PUSH1 0x0 SLOAD DUP1 PUSH2 0xB5 JUMPI PUSH2 0xB4 PUSH2 0x1ED JUMP JUMPDEST JUMPDEST PUSH1 0x2 DUP3 PUSH1 0xFF AND PUSH1 0xA DUP2 LT PUSH2 0xCC JUMPI PUSH2 0xCB PUSH2 0x21C JUMP JUMPDEST JUMPDEST ADD SLOAD DUP6 ADDMOD SWAP4 POP PUSH1 0x0 SLOAD DUP1 PUSH2 0xE3 JUMPI PUSH2 0xE2 PUSH2 0x1ED JUMP JUMPDEST JUMPDEST DUP5 DUP6 MULMOD SWAP3 POP PUSH1 0x0 SLOAD DUP1 PUSH2 0xF9 JUMPI PUSH2 0xF8 PUSH2 0x1ED JUMP JUMPDEST JUMPDEST DUP4 DUP5 MULMOD SWAP2 POP PUSH1 0x0 SLOAD DUP1 PUSH2 0x10F JUMPI PUSH2 0x10E PUSH2 0x1ED JUMP JUMPDEST JUMPDEST DUP5 DUP4 MULMOD SWAP5 POP DUP1 DUP1 PUSH2 0x11F SWAP1 PUSH2 0x287 JUMP JUMPDEST SWAP2 POP POP PUSH2 0x71 JUMP JUMPDEST POP PUSH1 0x0 SLOAD DUP1 PUSH2 0x139 JUMPI PUSH2 0x138 PUSH2 0x1ED JUMP JUMPDEST JUMPDEST DUP7 DUP6 ADDMOD SWAP5 POP POP POP POP POP SWAP3 SWAP2 POP POP JUMP JUMPDEST PUSH1 0x0 DUP1 REVERT JUMPDEST PUSH1 0x0 DUP2 SWAP1 POP SWAP2 SWAP1 POP JUMP JUMPDEST PUSH2 0x160 DUP2 PUSH2 0x14D JUMP JUMPDEST DUP2 EQ PUSH2 0x16B JUMPI PUSH1 0x0 DUP1 REVERT JUMPDEST POP JUMP JUMPDEST PUSH1 0x0 DUP2 CALLDATALOAD SWAP1 POP PUSH2 0x17D DUP2 PUSH2 0x157 JUMP JUMPDEST SWAP3 SWAP2 POP POP JUMP JUMPDEST PUSH1 0x0 DUP1 PUSH1 0x40 DUP4 DUP6 SUB SLT ISZERO PUSH2 0x19A JUMPI PUSH2 0x199 PUSH2 0x148 JUMP JUMPDEST JUMPDEST PUSH1 0x0 PUSH2 0x1A8 DUP6 DUP3 DUP7 ADD PUSH2 0x16E JUMP JUMPDEST SWAP3 POP POP PUSH1 0x20 PUSH2 0x1B9 DUP6 DUP3 DUP7 ADD PUSH2 0x16E JUMP JUMPDEST SWAP2 POP POP SWAP3 POP SWAP3 SWAP1 POP JUMP JUMPDEST PUSH2 0x1CC DUP2 PUSH2 0x14D JUMP JUMPDEST DUP3 MSTORE POP POP JUMP JUMPDEST PUSH1 0x0 PUSH1 0x20 DUP3 ADD SWAP1 POP PUSH2 0x1E7 PUSH1 0x0 DUP4 ADD DUP5 PUSH2 0x1C3 JUMP JUMPDEST SWAP3 SWAP2 POP POP JUMP JUMPDEST PUSH32 0x4E487B7100000000000000000000000000000000000000000000000000000000 PUSH1 0x0 MSTORE PUSH1 0x12 PUSH1 0x4 MSTORE PUSH1 0x24 PUSH1 0x0 REVERT JUMPDEST PUSH32 0x4E487B7100000000000000000000000000000000000000000000000000000000 PUSH1 0x0 MSTORE PUSH1 0x32 PUSH1 0x4 MSTORE PUSH1 0x24 PUSH1 0x0 REVERT JUMPDEST PUSH32 0x4E487B7100000000000000000000000000000000000000000000000000000000 PUSH1 0x0 MSTORE PUSH1 0x11 PUSH1 0x4 MSTORE PUSH1 0x24 PUSH1 0x0 REVERT JUMPDEST PUSH1 0x0 PUSH1 0xFF DUP3 AND SWAP1 POP SWAP2 SWAP1 POP JUMP JUMPDEST PUSH1 0x0 PUSH2 0x292 DUP3 PUSH2 0x27A JUMP JUMPDEST SWAP2 POP PUSH1 0xFF DUP3 SUB PUSH2 0x2A5 JUMPI PUSH2 0x2A4 PUSH2 0x24B JUMP JUMPDEST JUMPDEST PUSH1 0x1 DUP3 ADD SWAP1 POP SWAP2 SWAP1 POP JUMP INVALID LOG2 PUSH5 0x6970667358 0x22 SLT KECCAK256 CALLDATACOPY 0xE2 0x2C SELFDESTRUCT MUL PUSH26 0x521718C87C080660C717592F25ABB3C31767E4AC737E3BC1E613 PUSH5 0x736F6C6343 STOP ADDMOD GT STOP CALLER "
				},
				"gasEstimates": {
					"creation": {
						"codeDepositCost": "148400",
						"executionCost": "infinite",
						"totalCost": "infinite"
					},
					"external": {
						"MiMC5(uint256,uint256)": "infinite"
					}
				},
				"methodIdentifiers": {
					"MiMC5(uint256,uint256)": "324723a3"
				}
			},
			"storageLayout": {
				"storage": [
					{
						"astId": 4,
						"contract": "contracts/Hasher.sol:Hasher",
						"label": "p",
						"offset": 0,
						"slot": "0",
						"type": "t_uint256"
					},
					{
						"astId": 7,
						"contract": "contracts/Hasher.sol:Hasher",
						"label": "nRounds",
						"offset": 0,
						"slot": "1",
						"type": "t_uint8"
					},
					{
						"astId": 22,
						"contract": "contracts/Hasher.sol:Hasher",
						"label": "c",
						"offset": 0,
						"slot": "2",
						"type": "t_array(t_uint256)10_storage"
					}
				],
				"types": {
					"t_array(t_uint256)10_storage": {
						"base": "t_uint256",
						"encoding": "inplace",
						"label": "uint256[10]",
						"numberOfBytes": "320"
					},
					"t_uint256": {
						"encoding": "inplace",
						"label": "uint256",
						"numberOfBytes": "32"
					},
					"t_uint8": {
						"encoding": "inplace",
						"label": "uint8",
						"numberOfBytes": "1"
					}
				}
			},
			"userdoc": {
				"kind": "user",
				"methods": {},
				"version": 1
			}
		}
	}
}